:100000006F00705900000000F2010000F6010000CE
:1000100000000000000000000000000000000000E0
:1000200000000000000000000000000000000000D0
:100030006409000000000000660D000000000000E0
:10004000680D00006A0D00006C0D00006E0D0000D0
:10005000700D0000720D0000740D0000760D0000A0
:10006000780D00007A0D00007C0D00007E0D000070
:10007000F4090000820D0000840D0000860D0000D0
:10008000880D00008A0D00008C0D00008E0D000010
:10009000900D0000920D0000940D00000000000083
:1000A000511126C022C206C4828282441244A24058
:1000B000310182802A86014593F6150091C232955E
:1000C00085810606F5F9828000000000634E050276
:1000D00063C305042E86AA857D5515C285466378BF
:1000E000B6006356C00006068606E36CB6FE014500
:1000F00063E4C500918D558D85820582F5FA828075
:100100008682C93F2E8582823305A04063D70500D1
:10011000B305B040C1B7B305B0408682653F330533
:10012000A0408282868263C70500634905005D376F
:100130002E858282B305B040E35B05FE3305A04007
:10014000513F3305B040828200003D432A876373EC
:10015000C3029377F700BDEFADE5937606FF3D8AC6
:10016000BA960CC34CC30CC74CC74107E36BD7FE10
:1001700011E28280B306C3408A0697020000969679
:100180006780A6002307B700A306B7002306B700C1
:10019000A305B7002305B700A304B7002304B700E5
:1001A000A303B7002303B700A302B7002302B700DD
:1001B000A301B7002301B700A300B7002300B700D5
:1001C000828093F5F50F93968500D58D9396050162
:1001D000D58D61B793962700970200009696868288
:1001E000E78086FA9680C1171D8F3E96E374C3F8A8
:1001F000A5B77300203001A0EFF29FEA03C7C182C8
:1002000089469387C18205071377F70F63E6E604F3
:1002100098A39C23A9E7814537050040EF106013A0
:10022000370700409307F0021EB795679387F7E101
:100230005EB70146856537050040EF108015F92C43
:10024000854537050040EF10C01083C7A18593F79F
:10025000070F238DF18491BD238007005DBF054703
:100260006396E704814537050040EF10800EB7071D
:1002700000401D479AB74D47DAB74D2405468565BE
:1002800037050040EF10E010854537050040EF10BE
:10029000400C03C7A1851377070F238DE18403C7A3
:1002A000A18513671700238DE18475B70947E3948F
:1002B000E7FA814537050040EF10A009B707004075
:1002C0000D479AB74D47DAB7912C05468565370536
:1002D0000040EF10000C854537050040EF10600727
:1002E00003C7A1851377070F238DE18403C7A18579
:1002F000136727004DBF01E9B717014003A58780A9
:100300000581058982800545828083C7A185BD8BD3
:10031000B9E7EFF2FFD883C7A185BD8B238DF184A8
:1003200083C7D18283C5A1851387D18213964700E5
:100330004D8E1376F60F8507238DC18493F7F70F43
:10034000894663EBF6001CA30C2337250000130538
:1003500085B1EF10407A91BB23000700F5B782808A
:10036000EFF21FD437040020B705000081461305C3
:10037000840201469385652FEF00006B370600006D
:10038000130584021306A6308D45EF00606E370614
:1003900000001306861F954513058402EF00406D8B
:1003A00013058402EF00B00C09B3EFF27FCF85454F
:1003B00013054003EF00706A85450545EF00F069BD
:1003C0003714014009472328E48083270480B704B9
:1003D000300093F7F7F02320F4808327048093E71D
:1003E00007082320F480AD3F1C4037F7F0FF1307C8
:1003F000F70FF98F1CC01C403707030013070730A5
:10040000D98F1CC0D1471CC8854513850440EF0017
:10041000B04B03270440B70610FFFD16758F23204D
:10042000E44083270440C58F2320F4409307000253
:100430002328F4409DB9EFF2BFC661112E846353A7
:10044000B5002E85B2876353C500AA87B305D74090
:100450003385874036C032C2B1391246B305864073
:10046000B53182462101369589B1EFF27FC3130180
:1004700081FD8545454502C602C802CA02CC02CEAE
:1004800002D002D202C002C223140100EF00F05CCD
:1004900085450545EF00505E370518008545130575
:1004A0000510EF00704289477C86E1473ECA6C0028
:1004B0008D47371501403EC8EF0010339307F00217
:1004C0003EC095679387F7E18A85370500403EC2B5
:1004D000EF00705CC167938707062C083705004062
:1004E0003ECC231F010023100102EF00B05F8545C1
:1004F00037050040EF007067A14537050040EF0069
:10050000906B854537050040EF00506985453705FC
:100510000040EF0010641301810241BEEFF25FB8AA
:10052000130141FD1306C00281450A85393985450D
:100530000545EF00B050B7070040938707043EC061
:10054000938741833EC2C1473EC4C5473EC6930719
:1005500000083ECA93070010370402403ECC9307C0
:1005600000408A853ECE130504088D673ED202C83E
:1005700002D002D4EF00F0203705000FEF00502624
:100580000546130504088945EF007024B7E700E02D
:1005900013070007238EE7403707001023A0E7105A
:1005A000854513050408EF0050211301C102F5BC75
:1005B000EFF21FAF1301C1FD61468145680002C023
:1005C00002C202C45936854513054020EF00F048A9
:1005D0001165EF00B03B3715014091478A8513053F
:1005E00005407C8002C4EF00302037240140B7076B
:1005F0000E003ECC6C008547130504402300F10239
:1006000002C602C802CA02CEEF003001B7050002DE
:1006100013050440EF00B015854513050440EF00B5
:10062000B00413050440EF00300593040440268510
:10063000EF0030056DFD1305044037240140EF0045
:10064000D004130404402285EF00D0046DFD130193
:100650004102A1BCEFF2DFA437240140AA858946FC
:10066000054613050440EF00F004854513050440DA
:10067000EF00D0023727014083270740898BEDDF49
:100680000325C744420541810DB4EFF27FA1014526
:10069000D1371387E18216231306F03F81459397E4
:1006A0001600B6973E9509850AA39306803E130768
:1006B000007D513342054181B7070040A8C3F5B220
:1006C000EFF21F9E37F400E02320040023240400EF
:1006D00023220400B707002003A507009305401F4D
:1006E000D53A7D1508C8BD471CC013070007B7E7FA
:1006F00000E02386E740056723A0E7107DB20605EA
:10070000B335B000C98DC2057111C1816C812881DA
:10071000420541819357450013578500B98F3D8DA0
:100720003C813D8992075D8D4205418111018280A6
:10073000EFF21F97E937931705011D4763D30700B1
:100740003D47239AE18293161501938741833D47E4
:1007500063C306001D47BAA3931625013D4763C333
:1007600006001D47DAA3931635013D4763C3060013
:100770001D47FAA3931645013D4763C306001D4775
:100780009AA713770540BD4611E39D46B6A7137798
:100790000520BD4611E39D46D6A713770510BD463B
:1007A00011E39D46F6A713770508BD4611E39D4664
:1007B00096AB13770504BD4611E39D46B6AB1377A0
:1007C0000502BD4611E39D46D6AB13770501BD4634
:1007D00011E39D46F6AB13778500BD4611E39D46B8
:1007E00096AF13774500BD4611E39D46B6AF13772C
:1007F0002500BD4611E39D46D6AF05893D4711E171
:100800001D47FAAF239007026FF03F8AEFF25F892E
:10081000014589351387E18216231306F03F814590
:1008200093971600B6973E9509859306F0020AA3A2
:100830001307F07F0931420581454181D53D6FF0B5
:10084000DF86EFF2FF85B707024003A7070885455B
:1008500037050040799B23A0E708454723A2E70816
:100860001387418323A6E70803A707081367170028
:1008700023A0E708EF00F02D6FF03F83EFF25F82D7
:1008800037150E00EF00D0432533C536153D313EF8
:100890001387E1851C2393F7F70FFDDB2300070087
:1008A0009387A18598233D8B1DCB8946E3E2E6FE25
:1008B000982305463D8B6310C70A03C661859145A1
:1008C00037150140EF00A07FB7170140414798CB93
:1008D0001307000223A8E740153FA53755BF9C2307
:1008E000414793F7070F6380E70293060002638B8B
:1008F000D702D9FFB71701401146D0CB23A8D74064
:1009000098CB613371B737170140130600022328D3
:10091000C740914614CB5CCBB70700401307C05DBE
:10092000B8C3BDB737170140232AF740D1471CCBC6
:10093000370600409307803E9306107D3CC29385A6
:10094000018323A00500138501830C41FDDD85078C
:10095000E396D7FE35BF9C23BD8BE39FD7F603C636
:100960007185B1BF611122C20547238FE1841387CE
:10097000C1851E2326C08507C207C1831EA3138716
:1009800081851E239305D0071384C1858507C2077F
:10099000C1831EA393870183944393848185850635
:1009A00094C30A23EFF0CFF54205418119E59387FF
:1009B000718598231347170098A39E201307A00F53
:1009C000637AF7009387618598231347170098A3EC
:1009D000239004001E2005476375F7004D2C23105B
:1009E00004001244B7F700E023A20700824421016B
:1009F00073002030711122C0370402401C4013974D
:100A00006700635F0700814537050040EF00701401
:100A100083270408F99B2320F408B70700025CC071
:100A20000244110173002030EFF28FE761112EC2F2
:100A300032C081451306C002AA843684EFF0EFF07D
:100A4000924793060008B6A09CC422858297BE20D8
:100A500002473E05C607C583C98F71757D15058B95
:100A60003A07E98FD98FBEA0C0A021016FF0EFE354
:100A70008A05AA95D0C58280EFF28FE21C452A84B0
:100A8000482182973E2093F7077081C71E20850773
:100A90001EA014403A2093D7F6016385A704ED8287
:100AA000F17785069D8A1386F77FB377E6009395E5
:100AB000B600CD8F3EA009476378D700C6073E0534
:100AC000C583C98FF18F3EA01C40954613D787017F
:100AD0001D8B63EDE61089660A07938686B236970A
:100AE00018430287F1779387F77F7D8F3AA0E9BF9C
:100AF0003A2093D6E701858AFD831377F7F0639058
:100B0000D7025C443AA099C3228582971840B70760
:100B1000F0F8F98F37070101D98F1CC021A01367A6
:100B200007083AA06FF06FD813D7E701058BFD8354
:100B30006383E7023E2093F7F7F093E707013EA0B7
:100B40001C4899C3228582971840B707FFF8F98F90
:100B500037070002D1B71A209307800CE3F4E7FCB3
:100B60003E2093F7F7F093E707053EA01C5099C38A
:100B7000228582973E2093F7F78F93E707503EA098
:100B800055B713D7E701058BFD83639DE7023E2030
:100B900093F7F7F03EA05C4499C3228582973E20EC
:100BA000850713F7F7003E20C19BD98F3EA05C4814
:100BB00099C3228582971840B707FFF8F98F370746
:100BC000000399BF1A209307C003E3FDE7F43E201A
:100BD000854613F7F700631FD70093F7F7F093E705
:100BE00007033EA01C4C99C3228582973E2093F7B1
:100BF000F78F71B78946E31BD7FE93F7F7F093E7BA
:100C000007043EA05C4CC5B713D7E701058BFD83F5
:100C10006382E7023E2093F7F7F093E707013EA0D7
:100C20001C4899C3228582971A209307B003E3FDDD
:100C3000E7F06DBF1A209307C003E3E9E7FADDB5DB
:100C40003A2093D6E701858AFD831377F7F0639BFB
:100C5000D7005C50136707063AA0E38507EC2285AE
:100C60008297C9B5136707013AA01C48ADBF83A698
:100C7000018693870186368709E714D588C3014525
:100C800082806304A7001857C5BF7D558280EFF2AC
:100C90002FC103A4018619E06FF02FC12285E93B23
:100CA0000054D5BFB71702409843B706FFFC13673F
:100CB000170098C3D843758FD8C39843B706F7FE7B
:100CC000FD16758F98C39843B706FCFFFD16758F08
:100CD00098C3D843C176FD16758FD8C337079F00D8
:100CE00098C7984F1367070298CF3717014003261C
:100CF0000740930507401376F6F02320C7400326EC
:100D00000740136606082320C740094798C93727BC
:100D100002401043719A10C310431366160010C3AB
:100D2000D843D8C3D843F98ED4C3D843B7060001FB
:100D3000D8C39843558F98C3984393166700E3DD53
:100D400006FED843B7160240719BD8C3D843136739
:100D50002700D8C32147DC42B18BE39EE7FE8280A7
:100D600001A001A001A001A001A001A001A001A07B
:100D700001A001A001A001A001A001A001A001A06B
:100D800001A001A001A001A001A001A001A001A05B
:100D900001A001A001A097010020938121A9138146
:100DA00081FD17150000130565DA97F5FF1F938580
:100DB000652517F6FF1F1306662763FAC500832211
:100DC000050023A0550011059105E3EAC5FE17F5BE
:100DD000FF1F1305A525938541866377B500232062
:100DE00005001105E36DB5FE930200087390023013
:100DF0008D427390428097F2FFFF9382A22093E28C
:100E0000320073905230EFF0FFE9970200009382B6
:100E100022A773901234730020305C413707F1FF32
:100E20001307F7EF7D8FDC419441A207D58FD98F4F
:100E30005CC11C4537F7F1FF1307D77FD4457D8F81
:100E40009C49D58F94458606D58FD98F1CC55C5596
:100E5000370710FF7D177D8FDC29FD1793F7F70FFC
:100E6000D207D98F5CD582801C4589C593E71700CE
:100E70001CC58280F99BEDBF1C4593E787001CC50C
:100E8000828008450D81058982801C4593E74700D3
:100E90001CC5828008450981058982801C4591C551
:100EA00037075000D98F1CC582803707B0FF7D17E8
:100EB000F98FD5BFA54763F8B704138765FF93176C
:100EC00017008322C500BA971D433313F300134361
:100ED000F3FF33735300B397F600B3E767005CC5C5
:100EE000994763E3C7047D16931726003E96585929
:100EF000FD47B397C70093C7F7FFF98FB395C500B8
:100F0000DD8D4CD982809397150003230501AE97A0
:100F10001D473317F7001347F7FF33776700B39781
:100F2000F6005D8F18C96DBFB14763E2C702651651
:100F3000931726003E961859FD47B397C70093C7ED
:100F4000F7FFF98FB395C500DD8D0CD982804D1662
:100F50001317260054553A96FD47B397C70093C719
:100F6000F7FFF58FB395C500DD8D4CD582805C41D0
:100F7000370700FA7D17F98F5CC15C41DD8D4CC1EC
:100F800082801841E177BD0794517D8F9C45D58FB4
:100F90009449D58FD449D58F944DD58FD44DD58FC5
:100FA000D451D58F9455D58FD98F1CC1DC455CC1E8
:100FB0009C411CC5DC415CC582801C4189C593E70E
:100FC00017001CC1828041677917F98FDDBF1C4172
:100FD00001C6DD8D0CC1828093C5F5FFFD8DDDBF9F
:100FE000B7070240C8C382809C45611122C226C057
:100FF00013F7070113F3F70001C7D8413363E30088
:1010000092211377F60F29C78323050001471304A4
:101010008002930480048546B395E600B376B6005B
:101020006392D50293122700BD46B396560093C62D
:10103000F6FFB3F37600B3125300B3E37200639785
:1010400087064CC90507A146E317D7FC2320750086
:101050001307F00F6378C70483234500A1461304E8
:101060008002930480040547B312D70033775600FB
:101070006394E202139726000117BD45B395E5007E
:1010800093C5F5FFB3F375003317E300B36377003F
:1010900063928702232A550085064147E395E6FCC3
:1010A000232275001244824421018280E39C97F838
:1010B0000CC949BFE39297FE23285500F1BF19C21E
:1010C0000CC982804CC9828037030140032743004A
:1010D0009317350063D00702B707C0FFF517F98FE4
:1010E00037070007D98FD9CD370700F07D17798DE5
:1010F000C98F49A8635D0500B707E0FFED17F98FB9
:1011000037070007D98FBDCD06050581D5B7B707CD
:101110003000931605013376F500C1826313F602A1
:10112000370600F97D16B377C70003274300798E91
:101130002322C300A1C95581131745003395E6004A
:1011400045BF9317B50063D407029357050113F603
:10115000F7008D47B397C70093C7F7FFF98F37079D
:101160000007D98F85C1135755011207C1BF55819B
:1011700012053395A6009347F5FFF98F370700074F
:10118000D98FBDF5370701405CC38280B716024096
:10119000DC4241771307F77FF98F5D8DC8C28280EB
:1011A000EFE21FF0371702405C4391462A84B18B6F
:1011B0006385D700A146638DD706B7376E01938745
:1011C00007601CC0B7160240DC42918313F7F7009A
:1011D000B707002093878701BA978C23DC42184019
:1011E00093F5F50F93F707083355B70081E73A8574
:1011F000EFE05FEE48C008C448C4B7170240DC43C4
:10120000AD83FD8B13D737008A07F18BD98F93F607
:1012100037010D476373D700D11737070020130735
:101220004700BA978C23EFE0FFEA08C86FE0FFE7BA
:101230005C43B777DC02938707C061B799C537175E
:1012400002405C4B5D8D48CB8280B7170240D84B83
:101250001345F5FF798DC8CB828099C537170240B9
:101260001C4F5D8D08CF8280B7170240984F134501
:10127000F5FF798D88CF828099C5371702405C4F82
:101280005D8D48CF8280B7170240D84F1345F5FFD8
:10129000798DC8CF82801E2137370140130707C0E0
:1012A000C207C1836306E500370700406316E50007
:1012B000BA2193F7F7F8D98FFA2193F7F7CFC2073E
:1012C000C183D98F1EA1DE215EB59E211EB5B73721
:1012D0000140938707C06314F5009C251EB985471C
:1012E0005EA982801A31FD77FD17F98F1EB1035375
:1012F00005025A215E2DE5769386F6CFFD8E9E215E
:1013000013160701BA21A207DD8EF977FD17B3F78F
:10131000670003D38500C206418233676700320746
:10132000D98F37370140C207130707C0C182C18375
:10133000631BE50071777D17718FD2251A06518FD7
:10134000131607014182FA2152A156AD38C11EB1D0
:1013500082801E2189C593E717001EA18280C207E3
:10136000C183F99BC207C183CDBF8357450491C593
:101370002167D98F2312F5048280C607C583DDBF9C
:101380005E2501C6DD8D4EA5828093C5F5FFFD8DDE
:10139000DDBFEFE2FFD0ED376FE03FD11E2189C501
:1013A00093E707081EA18280C207C18393F7F7F76E
:1013B000C207C183C5BF5A2DFD779387F77FF98F89
:1013C000A205CD8FC207C1835EAD8280EFE25FCD03
:1013D0001629F577FD17F58FF621DA252111D58F1E
:1013E0001EA95625FD779387379FF58FD6212A842E
:1013F0002EC0D58F9625D58FB625D58F5EA55E29B3
:10140000C207C18393F7F7CF5D8F5AA94800493BC4
:10141000B74701409387078082456312F406C247AD
:101420005A24139517003E9542070E0541873E95B5
:101430008C41635807048605EFE0DFC99305400639
:101440002AC0EFE03FC98247931445009305400648
:101450003E85EFE0FFCA5E24C207C18763D507025D
:101460000E059305400613052503EFE0BFC61D8951
:10147000C98CC204C18006A461016FE01FC3B247DA
:1014800045B78A0555BF1205930540061305250388
:10149000EFE05FC43D89E9BF91C55E250967D98F3B
:1014A0005EA582805A25F977FD17F98FD5BF93F590
:1014B000F51F4EA182800A216D8D3335A0008280F8
:1014C000EFE21FBE2A84116511118545130505023F
:1014D0006933930700027C80371501408D473EC277
:1014E0008A85E147130505403EC4FD3C22C63744CA
:1014F0000140B70708006C00130504803ECA02C80B
:10150000231C0100E1358545130504807137710105
:101510006FE0BFB9EFE2DFB87111AE840144635DE3
:10152000C402B7470140138707803A85930500043A
:1015300032C05137B747014013870780024675D53F
:101540003387840083050700138507800504C205DF
:10155000C181B13F0246E1B7328511016FE0FFB4AE
:10156000411106C62EC00DCD1841AA8705C35841AA
:101570007D5511CB8546631BD70098472300070094
:1015800023A207000545B240410182809847824668
:1015900014A39847050798C7D8437D17D8C3DDB76C
:1015A00005468A85853FF9BF011122CC2EC206CEA1
:1015B00026CA2A84814793050002634506029245A4
:1015C000BE95838505008DE563D8C70263D4E70225
:1015D000198E1305000293F526002AC089C501E77C
:1015E000930500032EC0858A814495EAB2840DA03C
:1015F0008507F1B71D8EF1BF0146E1BF8245228507
:101600003AC832C63EC4A93FA24732464247FD14FB
:10161000E34690FEB284635306008144058E63C79F
:10162000E702A687924633879740369783050700DF
:1016300095EDB28463449004635306000146F24082
:101640006244D2443305F600056182801D8FBA875B
:1016500093050003228532C83EC63AC41137B2470B
:1016600022474246FD17EDF7BA9465BF228532C680
:101670003EC4FD35A247324685076DB782452285B7
:1016800032C43EC2F13DFD142246924765B739711E
:1016900006DE22DC26DA3EC232833A8689ED9246A5
:1016A0009307000301476C08FC86FD3DF25062542D
:1016B000D25421618280AA843684AE8791CA294798
:1016C00001446317E30063D50500B307B040054448
:1016D0008646A309010213073103938666FC36C4CC
:1016E0009A853E8532CA3AC81AC63EC0EFE05FA16D
:1016F000A546824732434247524663D4A600A246DB
:101700003695130505039306F7FFA30FA7FE9A85E9
:101710003E8532CC3ACA1AC83EC636C0EFE09F9B1F
:10172000B24742435247624663F9670401CC29CA73
:101730009247898BB1C79305D002268532C40D35F7
:1017400022467D169247918B95C306479307100654
:1017500032C4930500032685631EF70211359305F5
:1017600080072685F53B22460904791616479246DE
:1017700082452685153D229515BFAA8702478DB75C
:1017800082469307D0020144A38FF6FE9307E7FF3A
:101790003EC04DBFF13393058005E1B7014582801E
:1017A00001458280130181FD22D026CE06D22AC4B3
:1017B000AE82328402C681448385020089EDA2474D
:1017C00081C781453E85693B925002542685F2448B
:1017D000130181028280930750026388F50022453D
:1017E00016C88504B53BC24239A883871200138707
:1017F0001200639CB7002245930550023AC88D330E
:1018000042478504BA82850245BFD5DB9306B00204
:101810006389D70463C8F600930630026386D70451
:10182000814705A09306D002638AD7009306000380
:10183000E398D7FE13872200894721A0138722004F
:101840008547830607001306B0026383C60463411D
:10185000D60213063002638BC602BA820145A54642
:1018600081A0138722006DBF138722009147D1BF4B
:101870001306D0026389C60013060003E39FC6FC6B
:1018800093E7270031A005078547C1BF93E74700CD
:101890000507E1B713162500329506053A9585022E
:1018A00003860200130706FD9375F70FE3F4B6FEF7
:1018B0001307E0029946631EE60085028146A545AE
:1018C00003860200130606FD1377F60F63F5E502A3
:1018D00036C6038702001306A006630DC70A6343DA
:1018E000E6021306C0046307C70A13068006630CEA
:1018F000C70881452DA813972600BA968606B2968A
:1019000085027DBF130640076306C7081306A007BC
:101910006302C7081306C0068145631AC700038621
:1019200012008D456314E600850291458502038609
:101930000200930300061307100663C4C3001307D5
:1019400010049303700663C4C306930350066353E5
:1019500076189303700463C1C30493055004635B5A
:10196000B61613073004E310E6EA18409303440068
:1019700016CA230CE1001EC8A30C01000147BE8655
:101980002A862C0849A8038612008145E311E6FA4D
:10199000890271BF8502B1BF93063006E307D6FC0A
:1019A00063CEC606930680056303D602A9BD9306DF
:1019B00030076304D60463CBC6029306F0066302C5
:1019C000D60E9306000793E74700E31ED6E2914642
:1019D000639FD50A930384000C40504016CA3AC254
:1019E0003EC01EC8AA870147C146B9A0930650074A
:1019F0006308D6069306800745BF1840B726000047
:101A000093034400938506B411C3BA85324716CABE
:101A10001EC8BE862A862245413E0DA0914663948B
:101A2000D502930384000C40504016CA3AC23EC00F
:101A30001EC8AA870547A94622458D33C243AA94EA
:101A40001E84D242C9B3B2460C4016C836C23AC050
:101A500011042A878546294622451539AA9461B37F
:101A60009146639DD500930384000C40504016CAF4
:101A70003AC23EC01EC8AA87014775BFB2460C4095
:101A800016C836C23AC011042A878146E9B7B24661
:101A900016C80C40414636C23AC011042A87814616
:101AA00065BF9146639ED500930384000C4050406F
:101AB00016CA3AC23EC01EC8AA870147A146ADBF9A
:101AC000B2460C4016C836C23AC011042A87814675
:101AD000214659B70C401306840040403AC22A8779
:101AE000224532C83EC02286B687A94616CA4D395D
:101AF000AA944244B9B71301C1FD2EC832CAAA85BF
:101B00001008014506C636CC3ACE3ED032C059390F
:101B1000B24013014102828070776D5F6D6F646522
:101B20003A25640D0A000000F00A0000280B0000AE
:101B3000820B0000080C0000EC0B0000400C0000C1
:081B4000286E756C6C29000091
:101B4800006CDC020204060804080C1008101820B7
:101B58001020304020406080010203040506070879
:081B6800010203040506070851
:00000001FF
